:100000000C94DF050C94FC050C94FC050C94FC0589
:100010000C94FC050C94FC050C94FC050C94FC055C
:100020000C94FC050C94FC050C94762A0C944A2B39
:100030000C94C3240C94FC050C94FC050C94FC0556
:100040000C94FC050C94FC050C94FC050C94FC052C
:100050000C94FC050C944A250C94FC050C94FC05AE
:100060000C94FC050C94FC050C94FC050C94FC050C
:100070000C94FC050C94FC050C94FC050C94FC05FC
:100080000C94FC050C94FC050C94FC050C94FC05EC
:100090000C94FC050C94FC050C94FC050C94FC05DC
:1000A0000C94FC050C94FC050C94FC0514001A003F
:1000B00008001500170000001C0018000C001200BA
:1000C000130004001600070009000A0000000B00DE
:1000D0000D000E000F0033001D001B00060019006C
:1000E0000500E0001100100036003700380029003C
:1000F0002B00E300E1002A00E2002C0021522D0039
:10010000340028002B001F0252002F023002000092
:100110004B0024002500260025022002500051003B
:100120004F00210200004E002100220023002E0279
:100130002F003000260227022402E00035001E00B6
:100140001F002000310062524900E300E1002A0054
:10015000E2002C000100370027002E0049004A0071
:1001600052004D004B000000520040004100420090
:1001700043004C00500051004F004E000000510061
:100180003D003E003F0044000000A90000000000C8
:10019000007CE00000003A003B003C00450000000D
:1001A000AA00E300E1002A00E2002C000052460011
:1001B0004700480044454255473A206469736162EC
:1001C0006C65642E0A0044454255473A20656E61CD
:1001D000626C65642E0A006C65645F7461736B3ACF
:1001E00020253032580A004F6E6573686F743A20CC
:1001F0006163746976653A2025640A000A00253037
:10020000313662003A200025303258000A722F63DE
:100210002030313233343536373839414243444562
:10022000460A00556E69636F646520696E70757467
:10023000206D6F64652073657420746F3A20257596
:100240000A00556E69636F646520696E707574206D
:100250006D6F646520696E697420746F3A2025752E
:100260000A00313A0964656C6179282A31306D736E
:10027000293A2025750A323A09696E7465727661E9
:100280006C286D73293A2025750A333A096D617817
:100290005F73706565643A2025750A343A0974699C
:1002A0006D655F746F5F6D61783A2025750A353A28
:1002B00009776865656C5F6D61785F73706565640B
:1002C0003A2025750A363A09776865656C5F746966
:1002D0006D655F746F5F6D61783A2025750A0070F7
:1002E0003A097072696E742076616C7565730A6480
:1002F0003A097365742064656661756C74730A7578
:10030000703A092B310A646E3A092D310A6C743A3D
:10031000092B31300A72743A092D31300A455343A2
:100320002F713A09717569740A0A737065656420E2
:100330003D2064656C7461202A206D61785F737064
:10034000656564202A2028726570656174202F20FD
:1003500074696D655F746F5F6D6178290A77686590
:1003600072652064656C74613A20637572736F7294
:100370003D25642C20776865656C3D25640A5365CE
:100380006520687474703A2F2F656E2E77696B69DB
:1003900070656469612E6F72672F77696B692F4D85
:1003A0006F7573655F6B6579730A004D3E20004D74
:1003B00025753A25733E20003F0A003D2025750A29
:1003C000003F0A0064656661756C74730A002575E8
:1003D0000A003F0A000A092D2056616C75657320DA
:1003E0002D0A00710A000A092D204D6F7573656B87
:1003F0006579202D0A003F00433E20004C25640A09
:10040000000A092D20537461747573202D0A686FDA
:1004100073745F6B6579626F6172645F6C6564733E
:1004200028293A20253032580A6B6579626F61724B
:10043000645F70726F746F636F6C3A20253032584E
:100440000A6B6579626F6172645F69646C653A20FA
:10045000253032580A6B65796D61705F636F6E6627
:1004600069672E6E6B726F3A20253032580A7469B4
:100470006D65725F72656164333228293A202530D8
:10048000386C580A002573000A092D20436F6E73DB
:100490006F6C65202D0A4553432F713A09717569B8
:1004A000740A6D3A096D6F7573656B65790A000A98
:1004B000092D204D61676963202D0A443A0944657E
:1004C000627567204D65737361676520546F676758
:1004D0006C650A583A094D61747269782044656206
:1004E0007567204D6F646520546F67676C65202DBC
:1004F0002053686F77206B657970726573736573CD
:1005000020696E206D617472697820677269640A6F
:100510004B3A094B6579626F61726420446562757C
:100520006720546F67676C65202D2053686F7720B4
:100530006B65797072657373207265706F72740A7F
:100540004D3A094465627567204D6F757365205497
:100550006F67676C650A563A0956657273696F6E04
:100560000A533A095374617475730A433A09416333
:1005700074697661746520436F6E736F6C65204D8E
:100580006F64650A46312D4631303A0953776974F4
:10059000636820746F204C6179657220302D39209A
:1005A00028463130203D204C30290A302D393A0977
:1005B00053776974636820746F204C617965722089
:1005C000302D390A47524156453A095377697463C9
:1005D0006820746F204C6179657220302028616C2E
:1005E0007465726E617465290A423A094A756D70C4
:1005F00020746F20426F6F746C6F616465720A457E
:1006000053433A094A756D7020746F20426F6F74BE
:100610006C6F616465722028616C7465726E6174C0
:1006200065290A453A095072696E74204545505251
:100630004F4D2053657474696E67730A4241434B92
:1006400053504143453A09436C656172204545501A
:10065000524F4D0A4E3A094E4B524F20546F676726
:100660006C650A006B65796D61705F636F6E6669BA
:10067000672E7261773A20253032580A2E737761DF
:10068000705F636F6E74726F6C5F636170736C6FB9
:10069000636B3A2025750A2E636170736C6F636B10
:1006A0005F746F5F636F6E74726F6C3A2025750AAA
:1006B0002E737761705F6C63746C5F6C6775693AF9
:1006C0002025750A2E737761705F7263746C5F7298
:1006D0006775693A2025750A2E737761705F6C61C2
:1006E0006C745F6C6775693A2025750A2E737761A3
:1006F000705F72616C745F726775693A2025750A64
:100700002E6E6F5F6775693A2025750A2E737761C3
:10071000705F67726176655F6573633A2025750A5D
:100720002E737761705F6261636B736C6173685F76
:100730006261636B73706163653A2025750A2E6E82
:100740006B726F3A2025750A2E737761705F65733F
:10075000636170655F636170736C6F636B3A2025D2
:10076000750A0064656275675F636F6E6669672E00
:100770007261773A20253032580A2E656E61626CBC
:10078000653A2025750A2E6D61747269783A2025C4
:10079000750A2E6B6579626F6172643A2025750A5D
:1007A0002E6D6F7573653A2025750A006565636F58
:1007B0006E6669673A0A64656661756C745F6C6140
:1007C0007965723A2025750A003F004E4B524F3A28
:1007D000206F66660A004E4B524F3A206F6E0A0039
:1007E0000A6D6F7573653A206F66660A000A6D6F51
:1007F0007573653A206F6E0A000A6B6579626F61E6
:1008000072643A206F66660A000A6B6579626F61EE
:1008100072643A206F6E0A000A6D61747269783AE8
:10082000206F66660A000A6D61747269783A206FFB
:100830006E0A000A64656275673A206F66660A0090
:100840000A64656275673A206F6E0A000A0A4A7583
:100850006D70696E6720746F20626F6F746C6F616A
:100860006465722E2E2E2000433E2000436C65618D
:1008700072696E6720454550524F4D0A00290A00A3
:100880002575002F002575005D28002564002000D7
:10089000256400200025640020002564007C0025DC
:1008A000303258006D6F7573656B6579205B6274CB
:1008B0006E7C782079207620685D287265702F61C3
:1008C000636C293A205B0000000000000000002A51
:1008D0002B280000000000000000000000000000C5
:1008E000000029000000002C1E3420212224342680
:1008F00027252E362D3738271E1F20212223242579
:10090000263333362E37381F0405060708090A0B2D
:100910000C0D0E0F101112131415161718191A1B9F
:100920001C1D2F3130232D350405060708090A0B3D
:100930000C0D0E0F101112131415161718191A1B7F
:100940001C1D2F3130354C0000000000000000005D
:100950000000000000000000000000000000000097
:1009600000000000000000000000007E0F00D4FF27
:10097000FFFFC7000000780A002530325820006EC3
:100980006B726F5F7265706F72743A2025303258E7
:10099000207C20000A002530325820006B657962E7
:1009A0006F6172645F7265706F72743A20253032C5
:1009B00058207C200064656C5F6B65795F626974A8
:1009C0003A2063616E27742064656C3A20253032CA
:1009D000580A006164645F6B65795F6269743A20EC
:1009E00063616E2774206164643A20253032580AAE
:1009F0000073757370656E64696E67206B657962EC
:100A00006F6172640D0A005B575D005B535D005BB4
:100A1000525D005B445D005B435D000E034100746A
:100A20000072006500750073000000180354006533
:100A300000630068006E006F006D0061006E00636F
:100A400000790000000403090409025400030100B6
:100A5000A0FA0904000001030101000921110100AD
:100A60000122440007058103080001090401000177
:100A70000300000009211101000122B600070582D0
:100A800003200001090402000103000000092111F4
:100A90000100012215000705830320000112010057
:100AA00002000000080912E5A10800010200010689
:100AB00031FF0974A1010975150026FF0095207505
:100AC000088102C005010902A10185020901A100F6
:100AD00005091901290815002501950875018102EC
:100AE0000501093009311581257F950275088106B8
:100AF00009381581257F950175088106050C0A388E
:100B0000021581257F950175088106C0C005010980
:100B100080A101850319012AB700150126B70095A8
:100B20000175108100C0050C0901A101850419019E
:100B30002AA002150126A002950175108100C005AA
:100B4000010906A1018506050719E029E715002519
:100B5000019508750181020507190029EF15002587
:100B60000195F075018102050819012905950575A2
:100B7000019102950175039101C005010906A101CA
:100B8000050719E029E7150025019508750181027F
:100B90009501750881010507190029FF150026FF39
:100BA000009506750881000508190129051500251D
:100BB00001950575019102950175039101C01124FC
:100BC0001FBECFEFDAE0DEBFCDBF12E0A0E0B1E0A4
:100BD000E2EAFCE502C005900D92AA3CB107D9F704
:100BE00023E0AAECB2E001C01D92AC3EB207E1F7EF
:100BF0000E9490170C94C92D0C940000FF93EF9362
:100C0000E091CA02F091CB02309709F00995EF917B
:100C1000FF910895FC018591803011F0EFDFFBCF4B
:100C20000895FF27E0E230E247FF0CC0419597FFAF
:100C300009C0EDE26095709580959095611D711DDC
:100C4000811D911D27FF02C0219530E350E2AA27A4
:100C5000660F771F881F991FAA1FA41710F0A41BE7
:100C600063955A95A9F7AA3008F0A95FA05DAF93E4
:100C7000F395611571058105910541F7ED3211F488
:100C8000EF93F395F21718F43F93F395FBCF8F9101
:100C9000B5DFFA95E1F70895E991F99185918030F2
:100CA00021F0853219F0AADFF9CF089520E0E89409
:100CB00055915532C1F3503311F4689455915A331C
:100CC00048F4505390F3220F022E220F220F200DD2
:100CD000250FF4CF0EF4219589919991533619F38C
:100CE000533729F1533559F1BC0188279927E894E6
:100CF0005C3621F48991999168945591543639F470
:100D000046EF7EF077FF0DC08FEF9FEF0AC055379B
:100D10004AE039F0583540E121F0523642E009F01E
:100D20000895FF93EF937DDFEF91FF91B7CFFF938E
:100D3000EF93FC0181918030B9F360DFFBCFFF932B
:100D4000EF9368DFF1CFDF93CF93CDB7DEB7259672
:100D5000A3DFCF91DF9108958330B8F46430A8F415
:100D60004B3098F450E09BE0699F400D511D1124D9
:100D7000FA019CE2899FE00DF11D1124EE0FFF1F87
:100D8000E455FF4F85919491089581E090E0089596
:100D90000E94AC0608959C013A9521153F4150F5FB
:100DA000FC01EE27F170BC0166277270AC0144278C
:100DB00054709C012227387094FF0EC080E1EF2B05
:100DC00009F480E0672B09F08062452B09F080640C
:100DD000232B89F08068089581E0EF2B09F480E0EF
:100DE000672B09F08260452B09F08460232B19F0F2
:100DF0008860089580E00895CF93DF93EB010E940F
:100E0000CB06FE010995DF91CF910895CF93DF9333
:100E1000EC01805E9109089720F06BE57CE020975B
:100E200011F46EE17AE0CE010E94FC068C2F0E9444
:100E30001009DF91CF910895CF93DF93EC010E94C9
:100E4000A309CE01805E9109089720F062E67CE05C
:100E5000209711F465E27AE0CE010E94FC06DF9152
:100E6000CF9108950F931F93CF93DF938C01EB01E4
:100E70000E940607209741F4C8010E941C07DF91D9
:100E8000CF911F910F9108958FE99FE00197F1F79E
:100E900000C000002197EECF70E060E0893391053B
:100EA00011F460E570E00E943207089581E0089532
:100EB0000E945607089581E008950E9456070895FC
:100EC0000E945D07089508950E9463070895A6E0B3
:100ED000B0E0EDE6F7E00C94252D49835A839E831C
:100EE0003091D10289819A8131111AC03E81332318
:100EF00099F0222389F00E94CE0D182F682F898146
:100F00009A810E94AA0D69817A81812F0E94F4142E
:100F10002696E3E00C94412D0E94BC0D182FF3CFD0
:100F20000E94CE0D69817A81F1CFFC01262F40818C
:100F3000518162817381848195810E946707089540
:100F4000CF93DF93EC0161E00E949507BE010E9400
:100F50005807DF91CF910895CF93DF93EC0160E0C4
:100F60000E949507BE010E946407DF91CF9108950A
:100F700081E008950E94B8070895CF93C82F0E947A
:100F80007F0C8C2F0E94BA072FEF84E39CE0215046
:100F900080409040E1F700C00000CF91089581E0CB
:100FA0000E94BD070E946E25089580E00E94BD0743
:100FB0000E947F2508950F931F93CF93DF938C0199
:100FC00061E00E949507EC01B8010E946007811161
:100FD00006C080E0DF91CF911F910F910895B80175
:100FE000CE010E94BA178823A1F3B801CE010E9456
:100FF000EA21882371F3B801CE010E94C71C88231F
:1010000041F3B801CE010E949D1C882311F3F80121
:101010008581882369F0C330FCE7DF07A1F160F424
:10102000C130ECE7DE0789F1C0F4C115DC4791F06F
:10103000C8010E945B07CECFCB35ECE7DE0759F144
:10104000CC35FCE7DF0721F1CA35DC4789F70E9480
:101050002B12EECF0E94CF07BCCF90919603892F21
:101060008E7F90FF81608093960380FF09C086EC9D
:1010700091E09F938F930E94A3060F900F90A9CFAA
:1010800084EB91E0F6CF0E9433120E94D507A1CFE6
:101090000E942112CDCF0E942F12CACF0E949F24FE
:1010A0000E949A0808950E949E080E94A424089510
:1010B000829590E09C01220F331F220F331F2C7C5E
:1010C00095958795959587958373282B30E0C90171
:1010D000880F991F8A7A359527952575822B089553
:1010E000CF93DF93D92F0E945808C82F8D2F0E94CD
:1010F00058089C2FDF91CF910895089581E00895BD
:101100000895CF93DF93D82F0E947E08C82F88239D
:1011100019F08D2F0E9480088C2FDF91CF910895B8
:101120000895CF93C82F0E947D088C2F0E948108BC
:10113000CF91089580E00E94910808950E94332283
:101140000E9491080895CF930E943322C82F809166
:10115000CC028C1701F1C093CC020E942F25609322
:10116000CD027093CE028093CF029093D0028091F3
:1011700096038570853061F41F92CF9387ED91E0DF
:101180009F938F930E94A3060F900F900F900F9044
:101190008C2F0E949108CF910895ADE0B0E0E3ED6F
:1011A000F8E00C94262D488759876A877B878C87BF
:1011B0009D8791110E941E111F8286E0FE013896C4
:1011C000DE01119601900D928A95E1F78D818111D2
:1011D0000DC029813A814B815C816D817E818F8137
:1011E0000E9465102D96E2E00C94422DCE010196EE
:1011F0000E94A0078111EDCFF5CFFC0124812130A1
:1012000021F4808191810E94000E0895662329F0C7
:101210000E94281E0E940D1F08950E94941EFACF5E
:10122000CF93C82F8823C9F08238C9F40E94402286
:1012300081FD13C089E30E9408240E94B2112FEFA0
:1012400087EE93E0215080409040E1F700C000001D
:1012500089E30E941F240E94B211CF910895833820
:10126000A1F40E94402280FDF8CF83E50E9408246B
:101270000E94B2112FEF81EE94E021508040904007
:10128000E1F700C0000083E5E4CF8438A1F40E94B8
:10129000402282FDE2CF87E40E9408240E94B2111E
:1012A0002FEF81EE94E0215080409040E1F700C0A4
:1012B000000087E4CECF8CEF8C0F813A98F48C2F0E
:1012C0000E943D1C8111C9CF8C2F0E945D23882371
:1012D00029F08C2F0E941F240E94B2118C2F0E9493
:1012E0000824B9CF80E28C0F883048F4C77081E0C1
:1012F00001C0880FCA95EAF70E94FE10ACCFEBE55B
:10130000EC0FE33040F4F0E0E35BFE4F808190E0CF
:101310000E94F122A2CFE8E5EC0FEB3150F4F0E0AF
:10132000EE0FFF1FE95EFE4F808191810E94162320
:1013300094CF83E38C0F833108F08FCF61E08C2F43
:101340000E9406098ACF882309F456C0823879F4AE
:101350000E94402281FF50C089E30E9408240E941D
:10136000B21189E30E941F240E94B21108958338AC
:1013700059F40E94402280FF3FC083E50E94082468
:101380000E94B21183E5EECF843859F40E944022C6
:1013900082FF32C087E40E9408240E94B21187E4D1
:1013A000E1CF9CEF980F913AE8F290E2980F9830D5
:1013B00050F4877091E001C0990F8A95EAF7892F60
:1013C0000E940411D1CF9BE5980F933028F490E050
:1013D00080E00E94F122089598E5980F9B3128F44F
:1013E00090E080E00E941623089593E3980F9331D4
:1013F00018F460E00E94060908951F93CF93DF93CD
:10140000182FEB010E941009209739F4812F0E94B8
:10141000A309DF91CF911F9108958FE99FE0019774
:10142000F1F700C000002197EFCF70E060E0893352
:1014300011F460E570E00E94FD090895882321F011
:101440000E94FE100E94B2110895882321F00E948C
:1014500004110E94B2110895B0E0A0E0E2E3FAE0C6
:101460000C941F2D6C01D62FC72FFC01158106810E
:1014700002950F700E94F410E82E8823F9F0E12EF7
:101480001123E1F08C2F807F803461F080E28D0F9A
:10149000883008F18C2F807E803221F4D230D8F051
:1014A0000023C9F08091C70382FF15C082E00E942B
:1014B000E2110E94F41091E0E82EE926BC2EB294CD
:1014C0009FE0B922FBE0FB15B8F1EB2DF0E0E5530E
:1014D000F24D0C94102DE12CF1CF0C2F0F70C07F2A
:1014E00011F00295007F112399F0002359F080E25A
:1014F0008D0F883010F0D11107C0802F0E94FE1090
:101500000E94B2118D2F5AC0802F0E941111F8CF66
:101510008D2F0E94A309002379F080E28D0F88307F
:1015200010F0D11104C0802F0E94041103C0802F3D
:101530000E9417110E94B211EB2DE850FF0B349757
:1015400020F40E9433220E949108EE2089F00E942C
:10155000F01080FD0DC0F60115820E94EA100E9475
:10156000080DC6010E94380C0E94EA100E94180D56
:10157000CDB7DEB7E9E00C943B2D2C2F2F70F22E67
:10158000C07FC03219F0F29480EFF822DD2341F0E1
:10159000D130D1F1112309F444C00023F1F0B2CFCE
:1015A0008091C70382FD15C0112359F0FF2029F057
:1015B0008F2D0E94FE100E94B21180E00E9410093F
:1015C000BBCF80E00E94A309FF2009F4B5CF8F2D87
:1015D000ABCF112369F0011104C08F2D0E941E0AA8
:1015E000ABCF013009F0A8CF8F2D0E943511A4CFC9
:1015F0000111A2CF8F2D0E94250A8F2D0E9441112B
:101600008F2D0E94251198CF112321F0063008F06C
:1016100093CFE3CF053008F08FCF8F2D0E94250A9E
:101620008BCF0023D1F3D93349F43FEF87EE93E01A
:10163000315080409040E1F700C000008D2F0E94A3
:10164000A3097ACF8C2F86958695837069F08130B7
:1016500009F072CF8D2F9C2F9370111102C080E082
:1016600090E00E94162368CF8D2F9C2F937011114C
:1016700002C080E090E00E94F1225ECF612F8D2FAA
:101680000E94060959CF8C2F8370A1F5111154CFF8
:101690004D2F429546954770440F440F2D2F2F70C4
:1016A00030E0042E02C0220F331F0A94E2F790E0CC
:1016B00080E0D4FF09C08FE090E002C0880F991F3E
:1016C0004A95E2F780959095C695C695C370822B92
:1016D000932BC23049F058F4C13019F00E94D80C55
:1016E0002BCF0E94CF0C28CF0E94E10C25CF0E9467
:1016F000CC0C22CF8695112311F08C2F817088237A
:1017000009F41ACF4D2F429546954770440F440F68
:101710002D2F2F7030E0042E02C0220F331F0A94A9
:10172000E2F790E080E0D4FF09C08FE090E002C0D3
:10173000880F991F4A95E2F780959095C695C695B2
:10174000C370822B932BC23049F058F4C13019F08A
:101750000E94430DF1CE0E943A0DEECE0E944C0D38
:10176000EBCE0E94F00CE8CECF70112329F08C2F25
:101770000E94080D8D2F32CF8D2F0E94250A8C2FAD
:101780000E94180DD9CED23F41F160F4D03FB9F09C
:10179000D13F81F0112309F443C00111B3CE8C2F46
:1017A0008F711FC0D33F01F1D43FA1F78091C703D0
:1017B00082FD24C08C2F8F71112311F312C01123CD
:1017C00041F0053008F0B8CE8C2F8F710E942A0DA1
:1017D000B3CE063008F0B0CEF7CF8C2F8F71111139
:1017E000CFCF0E94080DA8CE112329F08C2F8F7126
:1017F0000E94FC0CA1CE0E94F70C9ECE112331F06A
:1018000063E08C2F8F710E94C41196CE81E00E94FC
:10181000E211023008F490CE82E00E94E2118CCEF8
:10182000002359F0D93309F009CFEFEFF7EE23E0A9
:10183000E150F0402040E1F7FFCE8C2F8F71A0CF18
:101840000F931F93CF93DF93EC01688179818D8192
:101850000E940B0E8C010E94550D0E94CB0CB8010A
:10186000CE010E942C0ADF91CF911F910F91089514
:10187000CF93DF93EC018C81882399F0CE010E94F5
:10188000DB07811111C00E94F410882351F08D8173
:10189000882339F08091C70382FF03C082E00E9451
:1018A000E211DF91CF910895CE010E94200CCE016C
:1018B0000E94AC07F6CF882321F00E9411110E94EC
:1018C000B2110895882321F00E9417110E94B211CD
:1018D000089590E080E00E94F12290E080E00E9474
:1018E00016230E941E110E94B2110E94C31F0E9463
:1018F0000D1F08950E9436240E94690C08950E94CD
:101900000E110E947A0C089592959F70963091F076
:1019100058F4925F9F70923058F4803F19F030F481
:10192000883E30F481E008959A5FF4CF843FD1F38C
:1019300080E00895883EB0F3813FD1F7F3CFFC01FA
:101940002481222339F0808191810E94000E0E941F
:10195000840C089580E00895A6E0B0E0E2EBFCE09E
:101960000C94262D2696E2E00C94422DA7E0B0E0E0
:10197000ECEBFCE00C94262D2796E2E00C94422D33
:1019800008950E94C00C08950E94C10C9093ED022E
:101990008093EC02089508950E94C40C089520914C
:1019A000EC023091ED02822B932B0E94C40C08951F
:1019B0002091EC023091ED02822393230E94C40C0B
:1019C00008952091EC023091ED02822793270E9426
:1019D000C40C08950E94C00C08950E94EA0C08955A
:1019E0000E94ED0C9093EB028093EA02089590E040
:1019F00080E00E94F00C089521E030E0A90102C0CF
:101A0000440F551F8A95E2F7CA010E94F00C089511
:101A100021E030E002C0220F331F8A95E2F7809167
:101A2000EA029091EB02822B932B0E94F00C089516
:101A300021E030E002C0220F331F8A95E2F72095A3
:101A400030958091EA029091EB02822393230E94C9
:101A5000F00C089521E030E002C0220F331F8A9578
:101A6000E2F78091EA029091EB02822793270E948D
:101A7000F00C08952091EA023091EB02822B932B17
:101A80000E94F00C08952091EA023091EB0282232B
:101A900093230E94F00C08952091EA023091EB020A
:101AA000822793270E94F00C08950895262F27700F
:101AB00091E001C0990F2A95EAF723E076956795A2
:101AC0002A95E1F7660F771F660F771FFA01E60F79
:101AD000F71F50E040E0682F70E08191DF0111971F
:101AE0009B01042E02C0369527950A94E2F72170D7
:101AF00021952827292328272C934F5F5F4F4430B7
:101B0000510559F70895A82FA77023E0969587955A
:101B10002A95E1F7880F991F880F991FFB01E80F9D
:101B2000F91F50E040E080E0219130E00A2E02C031
:101B3000369527950A94E2F721703327042E01C0C9
:101B4000220F0A94EAF7822B4F5F5F4F4430510512
:101B500059F70895262F943070F48B3060F4682F75
:101B600070E08BE0989F600D711D112442ED52E0F2
:101B7000822F0E94560D0895292F943068F48B30DF
:101B800058F490E062ED72E03BE0239F800D911DE0
:101B900011240E94830D089580E00895B0E0A0E034
:101BA000E4EDFDE00C941F2D7C010091EA02109100
:101BB000EB028091EC029091ED02082B192BCFE003
:101BC000D0E0CC24C394D12CBC2EC6010C2E02C074
:101BD000880F991F0A94E2F780239123892B49F4F7
:101BE000219790F7B12C8B2DCDB7DEB7E9E00C949F
:101BF0003B2DB7018C2F0E940015019789F3F3CF7D
:101C0000CF93DF93EC010E94CE0DBE010E94001520
:101C1000DF91CF9108951F93CF93DF93EB019091C4
:101C2000D102992339F0CB010E94000EDF91CF91B0
:101C30001F910895882369F0CB010E94CE0D182FC3
:101C4000682FCE010E94AA0DBE01812F0E940015AF
:101C5000EDCFCB010E94BC0D182FF6CF1F93CF9371
:101C6000DF93C091EE0217E08091EF028C1304C065
:101C7000DF91CF911F910895D0E01C9FF0011D9F2F
:101C8000F00D1124E051FD4F2081318142815381BB
:101C90006481758186810E94B60C2196C770E4CF5D
:101CA000209128033091290340912A0350912B035E
:101CB00060912C0370912D0380912E030E94B60C2D
:101CC0000895CF93DF9380912E03807F09F04DC05C
:101CD00080912D03882309F448C0E091EE025091D1
:101CE000EF02C0912903D091280360912A037091DB
:101CF0002B0347E05E17C9F18E2F90E0E49FF001BF
:101D00001124E051FD4F2481222391F1489FF001DD
:101D1000499FF00D1124DF01A051BD4F11962C9168
:101D200011972C1325C02C912D1322C015962C91A0
:101D3000159721111DC012962D913C91261B370B32
:101D4000283C3105A8F480912E038F708061809328
:101D50002E03EA50FD4F80818F708061808388E27E
:101D600093E00E94380C0E942E0EDF91CF910895CF
:101D7000FC013196E770BECF482F2091EE02909182
:101D8000EF0257E0291302C080E0089530E0529F2F
:101D9000F001539FF00D1124E051FD4F8181681334
:101DA00006C08081481303C085818111EECF2F5F6B
:101DB0003F4F2770E7CFA4E1B0E0E1EEFEE00C94E6
:101DC0001C2D8C0186E0F801DE011F9601900D921A
:101DD0008A95E1F7F8018481E58098E2A92E93E0E5
:101DE000B92E90912C0391111FC08823D1F0EE20C1
:101DF000A9F0C8010E949F0CF82E882379F087E093
:101E0000F801D50101900D928A95E1F7C5010E9474
:101E1000FD080E94610E0E94500E5FC0C8010E9422
:101E2000380CFF24F39459C0C080D1808280938005
:101E3000F0902D0320912A0330912B03A401421B23
:101E4000530BFF2009F4F9C0483C510508F0A7C026
:101E5000882309F442C09091290380912E03282FF2
:101E6000207F09F05CC09D1116C090912803C91213
:101E700012C0E1104EC08F70806180932E030E94CB
:101E8000500E88E293E00E94380C80912E03F801F6
:101E90008683F12C22C0E1103CC06D2D8C2D0E9458
:101EA000BC0E6D2D8C2D0E94BC0EE82E8111F1CF41
:101EB000CF86D88A8F8598890E94000E292F229577
:101EC0002F70243078F49F702230A8F09923B9F055
:101ED000F8019681907F99F4FE2C8F2D6496ECE0AA
:101EE0000C94382D2A5F2F70223068F0C8010E94B0
:101EF000380CEF2CF1CF992311F0882369F3805E21
:101F0000883050F3F3CF803F38F3815F833070F730
:101F1000E3CF80912E03816080932E03BACF9D1171
:101F200013C090912803C9120FC0E1100DC0868321
:101F3000C8010E94380C87E0F801A8E2B3E00190E4
:101F40000D928A95E1F767CFC8010E949F0C882304
:101F500009F464CFEE2009F461CF80912E03803222
:101F600088F02091280330912903398728879B86A0
:101F70008A8690912C039C871D868E87CE010896B9
:101F80000E94380C87E0F801A8E2B3E001900D92BE
:101F90008A95E1F70E94610E0E94500E42CF909107
:101FA0002E03292F207FA1F4682D9A8A898AA60101
:101FB0007A899E2D0E94AC0C88E293E00E94380C36
:101FC00087E0F50111928A95E9F70E94500E61CFE2
:101FD000882309F482CF809129038D1110C080914C
:101FE0002803C8120CC0E1100AC09683C8010E94E1
:101FF000380C87E0F50111928A95E9F76ECFC80198
:102000000E949F0C882309F409CFEE2009F406CF23
:1020100080912E03803208F4B5CF209128033091AF
:1020200029033A8329839C828B8290912C039D8380
:102030001E828F83CE010196A3CF483C5105B8F58F
:10204000882309F4EECEFE2CEE2009F4E7CE809131
:1020500029038D111EC080912803C8121AC08091D7
:102060002E0380FD0DC0982F907F51F08683903F06
:1020700009F45ECF982F907F905F8F70892B57CF98
:1020800087E0F801A8E2B3E001900D928A95E1F7AC
:1020900024CFC8010E949F0C811174CF80912E0320
:1020A000816080932E03C8010E94380C16CF682DE2
:1020B0009A8A898AA6017A899E2D0E94AC0C87E0B3
:1020C000F50111928A95E9F7A6CEAEE0B0E0EBE615
:1020D000F0E10C94252D288739874A875B876C8728
:1020E0007D878E87CE0108960E94DB0E8823B1F093
:1020F0006C85662341F0288539854A855B857D8519
:102100008E850E94B60C17E08091EE029091EF024E
:1021100089133DC02E96E3E00C94412D87E0FE012B
:102120003896DE01119601900D928A95E1F78C8523
:10213000882349F32091EF0230E0C90101968770AE
:1021400099274091EE024817190699F097E0929F5F
:10215000D001939FB00D1124A051BD4FFE013196C7
:1021600001900D929A95E1F78093EF020E942E0E56
:10217000CACF0E947F0C1092EF021092EE0287E00D
:10218000E8E2F3E0DF011D928A95E9F7BCCF819F79
:10219000C001112480519D4F0E94DB0E882309F459
:1021A000B9CFE091EE021E9FF0011124E051FD4FE6
:1021B00020813181428153816481758186810E94B1
:1021C000B60C8091EE0290E001968770992780937B
:1021D000EE029ACF8091570386958695869508954D
:1021E000809157038770089590915703977081E00D
:1021F00009F480E00895809183030895909183030A
:10220000892B80938303089580959091830398236D
:10221000909383030895809383030895109283031A
:10222000089590918203892B80938203089580956D
:1022300090918203982390938203089510928203D1
:10224000089508950E942111089590915803292F0F
:10225000282331F080958923809358030E9422110E
:10226000089508950E943111089590915903292FDE
:102270002823281729F0982B909359030E94321194
:10228000089590915903292F282331F080958923AF
:10229000809359030E943211089580915903882335
:1022A00029F01092590380E00E9432110895CF93D3
:1022B000C091830380918203C82B809159038823A6
:1022C00031F0C82B0E943B2381110E944D118C2FAD
:1022D000CF910895CF93DF93C0910201D091030174
:1022E0000E9457118883C0910201D091030148E0F8
:1022F00050E06FE473E0CE010E94612D892B59F00C
:1023000088E0FE01AFE4B3E001900D928A95E1F719
:10231000CE010E944322DF91CF910895CF93DF93A6
:10232000C0910001D09101010E9457118983C09191
:102330000001D091010140E250E06FE273E0CE0174
:102340000E94612D892B59F080E2FE01AFE2B3E0DB
:1023500001900D928A95E1F7CE010E949122DF91C2
:10236000CF91089580911601882339F08091C6039A
:1023700087FF03C00E948E1108950E946A1108957C
:1023800008950E94C01108959091C70392FF11C053
:1023900098E0899F90011124622B609357030E945B
:1023A000080D809157038695869586950E94C111E8
:1023B00008950E94080D08951092570380E00E942E
:1023C000C1110895909157038095892380935703F5
:1023D000282F277069F4891759F09091C70392FF4D
:1023E00007C08695869586950E94180D0E94DC117F
:1023F0000895CF93C82F8091C70382FB992790F946
:102400009C17E9F0C0FB82F98093C7038091C60353
:102410009091C7030E94541282E00E94E2118091C1
:10242000960380FF0CC01F92CF9387EE91E09F939D
:102430008F930E94A3060F900F900F900F90CF9153
:1024400008958091C70382FB882780F991E089274E
:102450000E94F911089581E00E94F911089580E029
:102460000E94F91108956FEF7FEF90E080E00E94E5
:10247000B32D089590E080E00E947F2D21E0853EFD
:102480009E4F09F020E0822F089582E090E00E94A4
:10249000772D089583E090E00E94772D089584E0E1
:1024A00090E00E947F2D0895BC0184E090E00E949E
:1024B000B32D0895AB01BC018FE090E00E94A72DE1
:1024C0000895AB01BC0183E190E00E94A72D08951F
:1024D00060E070E0CB010E946112089560E070E05E
:1024E000CB010E945A120E9468120895A8E0B0E041
:1024F000ECE7F2E10C94262D65EE7EEF90E080E0B3
:102500000E94B32D60E082E090E00E94952D81E072
:1025100090E09093ED028093EC0261E083E090E024
:102520000E94952D60E074E184E090E00E94B32D5C
:1025300060E086E090E00E94952D60E087E090E00A
:102540000E94952D40E050E0BA0188E090E00E94A2
:10255000A72D60E083E290E00E94952D60E08CE082
:1025600090E00E94952D60E08DE090E00E94952D16
:1025700019821A821B821C821D821E821F8218866B
:1025800048E050E067E170E0CE0101960E94852DA1
:1025900040E050E0BA018FE190E00E94A72D0E9438
:1025A0006E122896E2E00C94422D0E947612089555
:1025B000682F8EE090E00E94952D0895A6E0B0E08F
:1025C000E4EEF2E10C94242D0E9423258C018091ED
:1025D0008403909185038017910781F019821A82F4
:1025E0000E942325682F49815A81792F80E090E04D
:1025F0000E94CD0810938503009384032696E4E09F
:102600000C94402D0E942F256093920370939303A6
:10261000809394039093950360938E0370938F033C
:1026200080939003909391030895089508950E94D4
:102630001513089508950E941A13089580E497E2EF
:102640000E94A7170E9416130E941713089581E095
:1026500008950E94271308950E942713089508954E
:1026600008950E942F130E94301308950E943A1279
:10267000811102C00E94D5120E94451280939603D8
:102680000E944F129093C7038093C6030E944A1280
:1026900090E00E94CC0C8091EA029091EB020E94A3
:1026A000ED0C08950E941A250E9400170E9436130F
:1026B0000E9490080E940A180E941B130895A6E029
:1026C000B0E0E5E6F3E10C941A2D0E942913811184
:1026D0000AC00E94DE120E94E51F0E94A3082696EF
:1026E000EEE00C94362D0E94161726E8822E23E089
:1026F000922E640110E0F601E190F1906F01812FBC
:102700000E94FE151F5F143009F44BC0E816F9064D
:1027100091F38091960381FD0E9407160E942C136D
:10272000782E10E066246394812F0E94FE157C01B0
:10273000F401A190B1904F018A159B0561F100E071
:10274000CC24C394D12CAE24BF24C5018C219D215F
:10275000892BC1F07720B1F009831A830E942325C9
:102760009C838B836D8221E0C7018C219D21892B65
:1027700009F420E049815A816B817C818D81922FFF
:102780000E94CD080F5FCC0CDD1C0B30F1F6F4017C
:102790003297F182E0821F5F143031F60E940213FB
:1027A0009ACFE816F90609F0B4CF93CF1F93CF93D1
:1027B000DF930E940515EC01C11580E5D807F0F5FF
:1027C000C11580E4D80708F09CC0C03ED10520F5B3
:1027D000CD3CD10508F082C0C83AD10578F4C53A9D
:1027E000D10508F073C0C130D10519F1209709F166
:1027F000C430D105F0F4D0E0C0E01BC0C33CD1052B
:10280000D0F7C85AD0E0CC0FDD1FC05BDE4F099077
:10281000D881C02DD4640DC0C11580E2D80708F05E
:10282000D1C0C11581E0D80708F05AC0C83ED10513
:1028300010F7CE01DF91CF911F910895C03682E548
:10284000D80718F5C03482E5D80708F06BC0C0324D
:1028500082E5D80708F05FC0C11582E5D80708F403
:1028600097C02C2F2695269580E2289F9001112451
:102870008C2F8370C1E0D0E002C0CC0FDD1F8A95A1
:10288000E2F7C22BD32BDD68D4CFC03A82E5D8075C
:1028900060F4C03882E5D80708F459C0CF71D0E0A1
:1028A000DC2FCC27C46FD06AC4CFC03C82E5D807E8
:1028B00008F462C0C03E82E5D80708F09CCFDC2F48
:1028C000CC27CC27DF71C06FD06AB3CFC55AD0E018
:1028D000CA57DE4FC881D0E0D064ABCFD065A9CF56
:1028E0008D2F0E94A715182FCE0199270E9405153C
:1028F000C12FD0E0DC2FCC27CC27DF71C82BD92B00
:1029000098CFCE0199270E940515CC27DF70C82BE0
:10291000D92BD06A8ECFCF71D0E0DC2FCC27C16FFE
:10292000D06A87CF2C2F26952695277080E2289F86
:10293000900111248C2F8370C1E0D0E002C0CC0F35
:10294000DD1F8A95E2F7C22BD32BDC6872CF2C2FC8
:1029500026952695277080E2289F900111248C2FC0
:102960008370C1E0D0E002C0CC0FDD1F8A95E2F792
:10297000C22BD32BDA685DCF8C2F8F710E94A715E5
:10298000C82FD0E0DC2FCC27CC27DF71D06251CF0D
:102990008C2F8F710E94A71555E0D695C7955A9533
:1029A000E1F7CF70D0E0DC2FCC27282F30E084FF78
:1029B00005C044E0220F331F4A95E1F7C22BD32B09
:1029C000D06937CF8D2F8F710E94A715182FCE0198
:1029D00099270E940515C12FD0E0DC2FCC27CC27EA
:1029E000DF71C82BD92BD2CF462F743030F46B3027
:1029F00020F4672F0E94C806089590E080E00895B3
:102A00000E94F4140E94D613089582389105B9F1FA
:102A1000B0F48133910509F47DC048F48932910501
:102A200009F46DC08A32910509F47BC0089585339D
:102A3000910509F45FC08933910509F10895833E3A
:102A40009105D9F138F4803E910529F1823E910536
:102A500079F10895863E9105D9F1873E910509F4F3
:102A60003EC0843E910541F52091C70321FF24C05B
:102A70008091C60384FD19C087EE90E008952091EF
:102A8000C603237009F05AC02091C70323FF14C066
:102A900089E290E008952091C60320FD38C030916E
:102AA000C70330FF09C024FF43C090E080E00895D1
:102AB0002091C60322FDF7CF08952091C60322FD81
:102AC0003AC03091C70330FD39C024FFF5CFEDCFB8
:102AD0002091C60323FFF0CF24FDE7CFCDCF209177
:102AE000C60323FD2EC03091C70331FFEECF84EE25
:102AF00090E008952091C60325FFDECFC9CF209135
:102B0000C60325FD21C02091C70323FFD5CF89E34C
:102B100090E0D2CF2091C60326FFCECF8AE290E08C
:102B200008952091C60326FFC7CF81E390E0089562
:102B300083EE90E0089582EE90E0089580EE90E0BC
:102B4000089586EE90E0089585E390E008959091D1
:102B5000C60392FF10C041E0282F2471243009F0F1
:102B600040E031E0282F2871283009F030E0431789
:102B700011F02CE0822793FF10C041E0282F247130
:102B8000243109F040E031E0282F2871283109F084
:102B900030E0431711F02CE082273091C70330FF5B
:102BA00010C051E0282F2171213009F050E041E0A0
:102BB000282F2871283009F040E0541711F029E03F
:102BC000822731FF10C041E0282F2171213109F007
:102BD00040E031E0282F2871283109F030E0431718
:102BE00011F029E0822794FD877E089508950E94C0
:102BF000F615089508950E94FA150895E82FF0E05B
:102C0000EE0FFF1FE053FC4F808191810895B0E0EB
:102C1000A0E0EDE0F6E10C941C2D8CE092E09F9397
:102C20008F930E94A30680EDE82E83E0F82E0F908C
:102C30000F90912C812C97E0A92E92E0B92E24E0E0
:102C4000C22E22E0D22E0EEF11E0CCEFD1E09F9207
:102C50008F92BF92AF920E94A306DF92CF920E9402
:102C6000A306F701819191917F010E9470089F93C3
:102C70008F931F930F930E94A306DF93CF930E941D
:102C8000A3069FEF891A990AEDB7FEB73C960FB6D7
:102C9000F894FEBF0FBEEDBFF4E08F169104B9F6B5
:102CA000CDB7DEB7ECE00C94382D80EA8A95F1F7C9
:102CB000089500C008950E9455160895F894E82FCD
:102CC000E295EF70F0E031A1282F2F7081E090E0C5
:102CD00001C0880F2A95EAF7982F9095932391A326
:102CE00092A1892B82A378940895CF93DF9380E9F2
:102CF0000E945E1681E90E945E1683E90E945E16BC
:102D000082E90E945E16C9E8D1E089918F3F11F0F7
:102D10000E945E1681E0C439D807B9F7DF91CF91E0
:102D20000895AF92BF92DF92EF92FF920F931F939D
:102D3000CF93DF938C01D62EC62FD0E0CE018C56D8
:102D40009E4F7C01FC0120812F3F09F44CC0F89478
:102D5000E22FE295EF70F0E031A12F7081E090E07A
:102D600001C0880F2A95EAF7932F982B91A392A17F
:102D70008095892382A378940E945916E9E8F1E0AE
:102D800041E050E0B12CA12C21912F3FB1F1A22FB5
:102D9000A295AF70B0E090968C9190E02F7002C039
:102DA000959587952A95E2F780FD27C0CA01A82A44
:102DB000B92A440F551F81E0E439F80729F7F701D4
:102DC00080818F3F11F00E945E1661E0A114B10472
:102DD00009F460E08D2D0E945B16CC0FDD1FC00F43
:102DE000D11FB982A882DF91CF911F910F91FF90DF
:102DF000EF90DF90BF90AF90089590E080E0D7CF44
:102E00000E94751688E0E0EDF3E0DF01982F1D9237
:102E10009A95E9F7E8ECF3E0DF011D928A95E9F76E
:102E200084E00E9451170E94F7150895A8E0B0E0D1
:102E3000ECE1F7E10C94232D8E010F5F1F4F88E02A
:102E4000F80111928A95E9F7F12C6F2DC8010E94C3
:102E50009116F394F4E0FF12F8CF48E050E0B80187
:102E600088EC93E00E94612D21E0009709F420E0B6
:102E7000892B41F088E0F801A8ECB3E001900D92B5
:102E80008A95E1F744E060ED73E088EC93E00E94FE
:102E90005217182F0E94FB15812F2896E5E00C94FD
:102EA0003F2D0895B0E0A0E0E8E5F7E10C94202D77
:102EB0006C017B01042FC22F222379F081E08093E3
:102EC00099030E942325909398038093970380E0B1
:102ED000CDB7DEB7E8E00C943C2DD0919903DD230B
:102EE000B1F380919703909198030E943B25059739
:102EF00070F310E0000F111FA801B601C7010E9476
:102F0000612D892B31F0A801B601C7010E946E2DF9
:102F1000CD2F109299038C2FDBCF0E945F13089561
:102F20000E94BC240E94A2270E941E130E94BC275C
:102F30000E9452130E94C9270E94CE270E948D171B
:102F40000E94F4270E94DA250E943113F5CF909356
:102F5000CB028093CA020895FB012581222341F010
:102F600097FF06C09F77BC0190E080E00E94141993
:102F700081E008950F931F93CF93DF93EC018B01B2
:102F8000FB018581882389F00E94FB108272FE017B
:102F9000E053FC47E830F10540F4E952F24D0C945F
:102FA000102D882369F00E944618B801CE010E94B6
:102FB000AC17DF91CF911F910F910895882399F35A
:102FC0000E944518F2CF80E00E942518EECF81E0E4
:102FD000FBCF82E0F9CF83E0F7CF84E0F5CF85E047
:102FE000F3CF9091D903923071F48A3050F490E08D
:102FF00009966AE070E00E94FC2C875A0E94150A2C
:1030000008958650FBCF0E947B21089508950E9469
:10301000061808958CE090E00E94772D8093D903E4
:103020000E9407188091960380FF0EC08091D903FB
:103030001F928F9382E492E09F938F930E94A30646
:103040000F900F900F900F900895CF93C82F8093FB
:10305000D903682F8CE090E00E94952D8C2F0E9460
:1030600007188091960380FF0EC08091D9031F92AC
:103070008F9383E292E09F938F930E94A3060F9019
:103080000F900F900F90CF910895089508950E948A
:1030900040228093D8039091D903913029F481FF85
:1030A00003C089E30E94150A0E94FB108093DA0393
:1030B0000E940E110E941E118091D903823021F1CD
:1030C00058F48823C1F08130D1F08FE39CE9019757
:1030D000F1F700C000000895843051F18530A9F760
:1030E0008BE191E00E944C0785E290E00E944C0742
:1030F00088E290E006C082EE0E941009E6CF88E1E7
:1031000093E00E944C07E1CF8091D80380FD03C07B
:1031100083E50E94150A82EE0E9410098FE39CE964
:103120000197F1F700C0000087E50E94150ACDCF96
:1031300086EE0E94150A88E1F8CF8091D90382308B
:1031400011F148F4882381F0813091F08091DA0305
:103150000E940B1108958430F9F08530B9F788E2A8
:1031600090E00E944C07F2CF82EE0E94A309EECFBE
:103170008CE20E94150A8091D80381FFE7CF89E392
:103180000E94150AE3CF82EE0E94A3098091D80322
:1031900080FDDCCF83E5F4CF88E2F2CF8F929F925F
:1031A000AF92BF92EF92FF920F931F93CF93DF9353
:1031B0004B015C01D091D9038CE1E82EF12C07E0A2
:1031C00010E021E0D501C4010E2C04C0B695A795EE
:1031D000979587950A94D2F7C82FCF70222339F09C
:1031E000D43051F4CA3040F080E00E94F1178C2FA7
:1031F0000E94F11720E005C0C111F9CF043011057C
:10320000B4F30150110984E0E81AF1080F3F1007E8
:10321000C9F6DF91CF911F910F91FF90EF90BF9072
:10322000AF909F908F900895CF92DF92EF92FF9290
:103230006B017C01C114D10481E1E806F104A0F521
:10324000C114D10481E0E806F10420F08091D90393
:10325000823051F10E944718C114D10481E0E80680
:10326000F10438F18091D903811123C081E0E81A7B
:10327000F108C701B6012AE096958795779567957D
:103280002A95D1F778528F4F9F4F0E94CE1883E036
:10329000D822EE24FF24C701B60174528F4F9F4FEE
:1032A0000E94CE180E949D18FF90EF90DF90CF9063
:1032B0000895C701B601F4CF809104011F928F9346
:1032C000809105011F928F93809108011F928F9327
:1032D000809109011F928F9380910A011F928F9311
:1032E00080910B011F928F9382E692E09F938F93C0
:1032F0000E94A3068DB79EB70E960FB6F8949EBF98
:103300000FBE8DBF0895883248F58E3108F07FC01A
:103310008B3069F130F4873009F4E0C081EC93E040
:10332000F1C0833109F468C08431C1F783EE93E0C2
:103330009F938F930E94A3060F900F9080919E03FE
:10334000882309F411C110929E0310929D031092DC
:103350009C0310929B0310929A0325C08F3409F4AA
:10336000D6C008F03FC0893209F38833B9F686EE3B
:1033700093E09F938F930E94A3060E945C191F9273
:1033800081E08F931F9288E08F938FED92E09F935F
:103390008F930E94A3068DB79EB708960FB6F89438
:1033A0009EBF0FBE8DBF20919E03222309F4D3C080
:1033B00080919A0390919B03009711F488E991E022
:1033C0009F938F931F922F938FEA93E09F938F93F6
:1033D0000E94A3060F900F900F900F900F900F90E8
:1033E00081E00895813509F4A6C008F4A6C08235AD
:1033F00009F094CF81E08CC085ED93E09F938F938B
:103400000E94A3060E945C190F900F90CCCF8D51A3
:1034100080939E03833009F446C078F48130E1F054
:103420008230C1F110929E0382ED93E09F938F93BF
:103430000E94A3060F900F901BC0853009F445C071
:10344000D8F1863079F784E091E090939D038093E2
:103450009C0380EE91E008C08BE091E090939D0387
:1034600080939C038CE991E090939B0380939A0353
:1034700080919E03882309F496CF1F928F938EEC40
:1034800093E09F938F930E94A3060F900F900F904D
:103490000F9089CF8AE091E090939D0380939C03E5
:1034A00085EA91E0E1CF89E091E090939D038093DC
:1034B0009C0381EB91E0D8CF88E091E090939D034D
:1034C00080939C038EEB91E0CFCF85E091E09093C9
:1034D0009D0380939C038DEC91E0C6CF81E08093A7
:1034E0000B0184E180930A018AE0809309018EE157
:1034F0008093080188E08093050188E280930401AD
:1035000084EC93E09F938F930E94A3067DCF8AE083
:10351000E0919C03F0919D033097D1F02081082E1B
:10352000000C990B820F911D8F3F910541F03CF0EB
:103530008FEF808307C08FEFEBCF86EFE9CF97FF48
:10354000F8CF108280811F928F938BEB93E099CFFD
:1035500088EB93E0D7CF8BEA93E09F938F930E9401
:10356000A3060F900F903CCF80E00895CF93C82F13
:103570001F928F938CEF93E09F938F930E94A306EB
:1035800081E090E002C0880F991FCA95E2F70E947F
:10359000CC0C0E947F0C0F900F900F900F90CF914A
:1035A0000895B0E0A0E0E7EDFAE10C94212DEBEFF7
:1035B000E80FEF3308F052C1F0E0E152F24D0C9405
:1035C000102D0E944A121F928F938CEA97E09F93CE
:1035D0008F930E94A3060E94451283FB992790F9BE
:1035E0001F929F9382FB992790F91F929F9381FBD3
:1035F000992790F91F929F93982F91701F929F93F4
:103600001F928F9383E697E09F938F930E94A30668
:103610000E944F1293FB222720F91F922F9387FBC2
:10362000222720F91F922F9386FB222720F91F9231
:103630002F9385FB222720F91F922F9384FB2227AB
:1036400020F91F922F9383FB222720F91F922F939B
:1036500082FB222720F91F922F9391FB222720F92A
:103660001F922F93292F21701F922F9381FB2227C6
:1036700020F91F922F93282F21701F922F939F9331
:103680008F9384E696E09F938F930E94A3068DB755
:103690009EB78A960FB6F8949EBF0FBE8DBF81E08D
:1036A0002AC08CE698E09F938F930E94A3060E9405
:1036B000D5120F900F90F3CF8FEA94E09F938F93E2
:1036C0000E94A306F6CF80919603807F8093960395
:1036D00088E894E09F938F930E94A30688E698E081
:1036E0009F938F930E94A30681E080939F030F9086
:1036F0000F900F900F90CDB7DEB7E7E00C943D2D03
:103700008CE498E09F938F930E94A3060E94CF07BA
:10371000D0CF90919603892F8E7F90FF8160809308
:10372000960380FF03C080E498E0C8CF83E398E06D
:103730009F938F930E94A30680919603817F80932D
:103740009603B7CF90919603892F8D7F91FF82606A
:103750008093960381FF0AC086E298E09F938F933F
:103760000E94A306809196038160E9CF88E198E0EA
:10377000A5CF90919603892F8B7F92FF84608093D1
:10378000960382FF03C089E098E0E8CF89EF97E0D5
:1037900095CF90919603892F877F93FF88608093C0
:1037A000960383FF03C08DEE97E0D8CF80EE97E0BD
:1037B00085CF85EF91E09F938F9385E894E09F9369
:1037C0008F930E94A3060F900F900F900F9067CFDA
:1037D0000E942F25062FF72EE82ED92EC091C60362
:1037E000C7FBCC27C0F91091C503D09116010E94E8
:1037F0003322DF92EF92FF920F931F92CF931F928B
:103800001F931F92DF931F928F9381E094E09F9309
:103810008F930E94A3068DB79EB70E960FB6F894AD
:103820009EBF0FBE8DBF3BCF0E947F0C9091C60301
:10383000892F97FB87F980588093C60387FF03C0C1
:1038400086ED97E03BCF8BEC97E038CF80E00E948D
:10385000B61A25CF8953FBCF8D51F9CF89EC97E06C
:103860009F938F930E94A3060F900F9080E043CF09
:1038700080E008950E94381C0895CF93C82F80914E
:103880009F038130C1F0882339F0823009F450C0A1
:1038900010929F0380E00DC00E94FB108232D1F78E
:1038A0008C2F0E94381C81111FC08C2F0E94D11AAE
:1038B0008170CF9108950E94FB10823289F38C2F82
:1038C0000E943A1C811127C0C43139F180F4CB30F9
:1038D00091F0C03131F186EF93E09F938F930E9476
:1038E000A3060F900F901BC081E090E0E1CFC9329A
:1038F000A1F0C83381F788E894E09F938F930E94EA
:10390000A30688EF93E09F938F930E94A3060F90E6
:103910000F900F900F9081E0CBCF10929F0380E02B
:10392000C7CF82E080939F0388E30E948319F3CF7F
:103930008C2F0E94831981E0BCCFCF93DF93EB01E2
:1039400086319C4711F50E94FB109D81992399F0C7
:103950008A7A91E009F490E09093A003811109C064
:1039600089E20E9408240E94B21180E0DF91CF9189
:10397000089585E3F6CF8091A003811104C089E208
:103980000E941F24F0CF85E3FBCF81E0EFCFCF93E0
:10399000DF93EC01FB018581882309F4D2C09E01ED
:1039A00030572332310508F0B2C00E944F12909375
:1039B000C7038093C603FE01E150F047E232F105F0
:1039C00020F4E25EF14D0C94102D8091C6038160CD
:1039D0008093C60393C08091C70388608093C70318
:1039E0008DC08091C6038260F3CF8091C60384604E
:1039F000EFCF8091C6038860EBCF8091C7038160D1
:103A0000EDCF8091C7038260E9CF8091C6038061CA
:103A1000DFCF8091C6038062DBCF8091C6038064D4
:103A2000D7CF0E947F0C8091C6038068D1CF809150
:103A3000C6038C60CDCF8091C7038360CFCF8091C8
:103A4000C6038E7FC5CF8091C703877FC7CF809184
:103A5000C6038D7FBDCF8091C6038B7FB9CF809188
:103A6000C603877FB5CF8091C7038E7FB7CF809184
:103A7000C7038D7FB3CF8091C6038F7EA9CF80917E
:103A8000C6038F7DA5CF8091C6038F7BA1CF0E94F7
:103A90007F0C8091C6038F779BCF8091C603837F75
:103AA00097CF8091C7038C7F99CF8091C60382FB0B
:103AB000992790F921E0922790FB82F990FB83F9F6
:103AC00087CF8091C703982F909591708E7F892B17
:103AD00090FB81F983CF9091C603892F8F7B96FF4E
:103AE000806476CF0E947F0C9091C603892F97FB4C
:103AF00087F980586DCF81E00E94D8128091C6036B
:103B00009091C7030E9454120E947F0C80E0DF91C5
:103B1000CF91089580E0F0CF9091C603892F8F7EDA
:103B200094FF806155CF9091C603892F8E7F90FFBF
:103B300081604ECF9091C703892F877F93FF886064
:103B40004DCF81E0E4CF282F35EB2303C0011124B2
:103B500097FF04C080589109892F089580589F4F7E
:103B6000FBCF8091A70380FF0DC06091090170E039
:103B7000660F771F6038710570F56115710569F181
:103B8000862F089581FF07C06091090184E0689F36
:103B9000B0011124EFCF6091090182FD0AC080912C
:103BA000A6038823A9F020910801609109018217DA
:103BB00010F088E0ECCF869FC001112433E0880F1D
:103BC000991F3A95E1F7622F70E00E94FC2CD2CF4A
:103BD00068E070E0D5CF8FE7089581E00895809187
:103BE000A70380FF0CC06091050170E07595679593
:103BF000759567956115710549F1862F089581FFC7
:103C000006C06091050170E075956795F3CF6091EE
:103C1000050182FD0BC09091A5039923A1F060914D
:103C2000040180910501961738F0682F70E0603824
:103C3000710500F38FE70895899FC001112470E09A
:103C40000E94FC2CF4CF61E070E0D7CF81E00895B2
:103C50009091AA032091AB03922B2091AD03922B5C
:103C60002091AC03922B31F098E09093A60391E061
:103C70009093A5038D3C31F40E94B11D81958093F2
:103C8000AB0308958E3C19F40E94B11DF8CF8F3C10
:103C900031F40E94B11D81958093AA030895803D5F
:103CA00019F40E94B11DF8CF893D29F40E94EF1D3F
:103CB0008093AC0308958A3D21F40E94EF1D819505
:103CC000F7CF8B3D31F40E94EF1D81958093AD03BA
:103CD00008958C3D19F40E94EF1DF8CF9FE2980FD4
:103CE000983070F4815D990B21E030E001C0220F23
:103CF0008A95EAF78091A903822B8093A9030895FE
:103D00008D3D31F48091A70381608093A7030895CE
:103D10008E3D21F48091A7038260F7CF8F3DB9F7E4
:103D20008091A7038460F1CF4091AA038D3C59F4A0
:103D30008091AB0387FF0DC01092AB0341110BC004
:103D40001092A60308C08E3C81F48091AB03181634
:103D50009CF3442381F08091AC039091AD03892BB7
:103D600009F05AC01092A50308958F3C49F447FF0B
:103D7000F0CF1092AA038091AB038111ECCFE0CF7A
:103D8000803D19F41416ACF3E4CF9091AC03893D57
:103D900029F41916F4F61092AC03DBCF8A3D19F41E
:103DA00097FFD7CFF8CF9091AD038B3D29F497FFC4
:103DB000D0CF1092AD03CDCF8C3D19F41916CCF3B2
:103DC000C8CF9FE2980F983090F4815D990B21E065
:103DD00030E0B90102C0660F771F8A95E2F7CB0188
:103DE00080959091A90389238093A903B2CF8D3D3B
:103DF00031F48091A7038E7F8093A703AACF8E3DD5
:103E000021F48091A7038D7FF7CF8F3D09F0A1CFDB
:103E10008091A7038B7FF0CF08958091960383FF55
:103E200096C084EA98E09F938F930E94A3068091A6
:103E3000A9031F928F938FE998E09F938F930E941D
:103E4000A3068DE998E09F938F930E94A30680912B
:103E5000AA03282F082E000C330B3F938F938AE977
:103E600098E09F938F930E94A30688E998E09F9320
:103E70008F930E94A3068091AB03282F082E000C7D
:103E8000330B3F938F9385E998E09F938F930E9424
:103E9000A30683E998E09F938F930E94A3068091E5
:103EA000AC03282F082E000C330B3F938F9380E92F
:103EB00098E09F938F930E94A3068EE898E09F93CB
:103EC0008F930E94A3068091AD03282F082E000C2B
:103ED000330B3F938F938BE898E09F938F930E94CF
:103EE000A30688E898E09F938F930E94A3068DB75E
:103EF0009EB780960FB6F8949EBF0FBE8DBF80917F
:103F0000A6031F928F9385E898E09F938F930E945A
:103F1000A30683E898E09F938F930E94A306809165
:103F2000A7031F928F9380E898E09F938F930E943E
:103F3000A3068DE798E09F938F930E94A3068DB709
:103F40009EB70C960FB6F8949EBF0FBE8DBF0E9411
:103F500023259C019091AA038091AB03982B21F01B
:103F60003093A4032093A3039091AC038091AD03FD
:103F7000982B21F03093A2032093A10388EA93E0C9
:103F80000E94E322089586E0E8EAF3E0DF011D9253
:103F90008A95E9F71092A6031092A5031092A70341
:103FA0000895FC01828181110EC0838181110BC0B3
:103FB0008481811108C091E08581811101C090E068
:103FC000892F8170089581E0FCCFA6E0B0E0EBEE90
:103FD000FFE10C94252D86E0E8EAF3E0DE0111967E
:103FE00001900D928A95E1F71092AA031092AB030B
:103FF0001092AC031092AD038B819C81892B89F0C8
:104000008091A3039091A4030E943B25AC01909161
:10401000A6039923C9F180910A018417150608F4B3
:1040200040C08D819E81892B91F08091A103909158
:10403000A2030E943B25AC019091A503992309F4AA
:104040006AC0809106018417150608F472C0BE018B
:104050006F5F7F4F88EA93E00E945024811105C072
:1040600088EA93E00E94D11F81110E940D1F86E013
:10407000FE013196A8EAB3E001900D928A95E1F72E
:104080002696E3E00C94412D20910B018AE0289FB5
:10409000900111242417350720F69F5F9093A60303
:1040A00002C09F3FD1F71B81112359F00E94B11D1F
:1040B0009FEF11160CF491E0899F802D11248093BD
:1040C000AA031C81112359F00E94B11D9FEF111604
:1040D0000CF491E0899F802D11248093AB03809193
:1040E000AA03882309F49DCF1091AB03112309F48F
:1040F00098CF0E94A31D882351F08093AA03812F9B
:104100000E94A31D882329F08093AB038ACF81E00E
:10411000F4CF81E0F9CF209107018AE0289F900138
:1041200011242417350708F092CF9F5F9093A503C1
:1041300002C09F3FD1F71D81112359F00E94EF1D4E
:104140009FEF11160CF491E0899F802D112480932C
:10415000AC031E81112359F00E94EF1D9FEF111631
:104160000CF491E0899F802D11248093AD03809100
:10417000AC03882309F46BCF1091AD03112309F42C
:1041800066CF0E94A31D882351F08093AC03812F3A
:104190000E94A31D882329F08093AD0358CF81E0AE
:1041A000F4CF81E0F9CFB0E0A0E0E9EDF0E20C94CB
:1041B0001F2DE82FF0E0E953F74FB490282F2695F4
:1041C0002695269530E0F901E959F64F049187705C
:1041D00010E0082E02C0159507950A94E2F70170C9
:1041E0001127F901E95AF64FE490F12C082E02C08C
:1041F000F594E7940A94E2F791E0E922FF24F901AB
:10420000E95BF64FC491D0E002C0D595C7958A9579
:10421000E2F7C170DD27C62ED12C0115110549F535
:10422000E114F10431F086EE0E941009C6010097F6
:1042300071F5B6018B2D0E94FD09C601009779F535
:10424000E114F104A1F50115110531F081EE0E9490
:10425000A309C6010097C9F5CD2B31F08CE20E946D
:10426000150AC114D104C9F5CDB7DEB7E9E00C9445
:104270003B2D81EE0E941009C601009789F2EFE9FB
:10428000FFE03197F1F700C000000197F6CFEFE9AA
:10429000FFE03197F1F700C000000197C8CFEFE9C8
:1042A000FFE03197F1F700C000000197C7CF86EE1D
:1042B0000E94A309C601009731F2EFE9FFE03197B0
:1042C000F1F700C000000197F6CFEFE9FFE031976A
:1042D000F1F700C000000197BDCF8FE99FE0019783
:1042E000F1F700C0000091E0C91AD108BACF60E030
:1042F0000E94D3200895982F9F709A50963020F0F6
:10430000805D0E9477210895895AFBCF0F931F93F8
:10431000CF93DF93C42FD22FFC0185818823C9F06E
:104320004093B0030E9423259093AF038093AE0384
:1043300080E28C0F883040F4C77081E001C0880FA4
:10434000CA95EAF70E941E0ADF91CF911F910F9143
:1043500008951091B003141332C08091AE03909170
:10436000AF030E943B25883C910548F5C0E2CD0F84
:104370001D17B9F080E2810F883040F4177081E09A
:1043800001C0880F1A95EAF70E94250AC83048F440
:1043900081E09D2F977001C0880F9A95EAF70E94DF
:1043A0001E0A802F0E94150AC83070F6D77081E06F
:1043B00001C0880FDA95EAF70E94250AC5CF80E28E
:1043C0008C0F883008F6C77081E001C0880FCA954D
:1043D000EAF7F2CF0F93DB0188519C4787309105B4
:1043E000A0F5FC01E05CF14D0C94102D06E221EEED
:1043F00041EE6AE17CE7CD010E94862180E00F91C9
:10440000089507E225EE45EE6BE17CE7F4CF06E286
:1044100021EE40EE68E17CE7EECF07E225EE44EEC8
:1044200069E17CE7E8CF06E221EE42EE6CE17CE751
:10443000E2CF07E225EE46EE6DE17CE7DCCF08E255
:1044400021E045EE6EE17CE7D6CF15968C9188236E
:1044500019F01092B003D3CF81E0D1CF9093B6037F
:104460008093B5030895E091B503F091B6033097BA
:1044700029F00190F081E02D0995089580E00895DC
:104480000E9433220895EF92FF920F931F93CF93D0
:10449000DF93EC01E091B503F091B6033097E1F1C1
:1044A0000280F381E02D09958091960382FF34C04C
:1044B00080FF0DC088811F928F938CE999E09F93B4
:1044C0008F930E94A3060F900F900F900F907E0184
:1044D00086E0E80EF11C06E919E08091960380FF62
:1044E0000BC08A811F928F931F930F930E94A30684
:1044F0000F900F900F900F902196CE15DF0569F762
:104500008091960380FF08C084E999E09F938F9380
:104510000E94A3060F900F90CDB7DEB7E6E00C9493
:104520003E2DEF92FF920F931F93CF93DF93EC01F9
:10453000E091B503F091B603309709F43FC086E0EF
:1045400088830480F581E02DCE0109958091960342
:1045500082FF34C080FF0DC089811F928F938FE747
:1045600099E09F938F930E94A3060F900F900F9056
:104570000F907E018EE1E80EF11C09E719E08091B1
:10458000960380FF0BC08A811F928F931F930F9316
:104590000E94A3060F900F900F900F902196CE15BA
:1045A000DF0569F78091960380FF08C087E799E0EF
:1045B0009F938F930E94A3060F900F90CDB7DEB705
:1045C000E6E00C943E2DE091B503F091B6033097F0
:1045D00039F022E0DC012C930680F781E02D09956B
:1045E0000895A3E0B0E0E7EFF2E20C94262D2091CD
:1045F000B3033091B40328173907A1F09093B403A3
:104600008093B303E091B503F091B603309751F076
:1046100023E029839B838A830084F185E02DCE01EA
:10462000019609952396E2E00C94422DA3E0B0E0B8
:10463000ECE1F3E20C94262D2091B1033091B2030A
:1046400028173907A1F09093B2038093B103E0914A
:10465000B503F091B603309751F024E029839B8392
:104660008A830084F185E02DCE0101960995239679
:10467000E2E00C94422D20910201309103012E5F63
:104680003F4F80911601882379F08091C60387FF00
:104690000BC020910001309101012E5F3F4F9EE140
:1046A00080E0915018F4089596E0FACFF901419115
:1046B0009F014423B1F38F5FF4CF882321F19091C0
:1046C0001601992311F19091C60397FF1EC0E82FA0
:1046D000E695E695E695EE31B0F420910001309133
:1046E0000101E20FF32FF11D228130E0877041E0DC
:1046F00050E002C0440F551F8A95E2F7242335236A
:1047000081E0232B91F480E0089520910201309103
:104710000301F9013296285F3F4F9191981721F0DC
:10472000E217F307D1F7EFCF81E008959C01FC0178
:1047300032969FEF80E04191461751F09F3F19F468
:10474000411101C0982F8F5F8630A9F79F3F09F470
:104750000895290F311D97FD3A95F9016283089557
:10476000FC01329608962191261303C0DF011197B0
:104770001C92E817F907B9F70895E62FE695E69534
:10478000E695EE3170F4E80FF92FF11D677021E026
:1047900030E001C0220F6A95EAF78281822B828382
:1047A00008958091960380FF0CC01F926F9383ED54
:1047B00099E09F938F930E94A3060F900F900F9004
:1047C0000F900895E62FE695E695E695EE3178F49C
:1047D000E80FF92FF11D677021E030E001C0220FD2
:1047E0006A95EAF720958281282322830895809193
:1047F000960380FF0CC01F926F9385EB99E09F9307
:104800008F930E94A3060F900F900F900F90089522
:10481000682F80911601882359F08091C60387FF85
:1048200007C080910001909101010E94BD2308956D
:1048300080910201909103010E9496230895682FB0
:1048400080911601882359F08091C60387FF07C025
:1048500080910001909101010E94E22308958091CE
:104860000201909103010E94B023089580911601E6
:10487000882379F08091C60387FF0BC0E091000187
:10488000F091010132968EE1DF011D928A95E9F7E0
:104890000895E0910201F0910301329686E0F4CF91
:1048A000DC01FB0111969C9111978181981322C024
:1048B00012968C911297882319F0928189131AC04D
:1048C00013968C911397882319F09381891312C042
:1048D00015968C911597882319F0958189130AC034
:1048E00014969C91992321F081E02481291303C01F
:1048F00080E001C081E08170089508950E947D24C8
:104900000895811106C081E08093B7030E947E2440
:10491000089582E0F9CF83E08093B7030E947E245C
:1049200008950E948124089581E08093B7030E9436
:104930007E2408950E9494240895089508950E9465
:104940009E240895089508950E949D240895CF936C
:104950000E94A2240E9416170E94A324C0E08C2F5C
:104960000E94FE15892B31F4CF5FC430C1F780E07F
:10497000CF91089581E0FCCF85B7806885BF85B76A
:10498000806885BF08951F921FB61F9211248F93D0
:104990009F93AF93BF938091B803811113C080910F
:1049A000DB039091DC03A091DD03B091DE0341961F
:1049B000A11DB11D8093DB039093DC03A093DD0365
:1049C000B093DE03BF91AF919F918F911F901FBE57
:1049D0001F9018958091E303843031F10E944E08B6
:1049E0001092B80388E190E020E40FB6F894A895FF
:1049F000809360000FBE2093600083B7817F846046
:104A000083BF83B7816083BF7894889583B78E7F97
:104A100083BF0FB6F894A895809160008861809359
:104A20006000109260000FBE08950E947F0C0E94EB
:104A30005308089582E084BD93E095BD9AEF97BD39
:104A400080936E0008952FB7F8948091DB039091C6
:104A5000DC03A091DD03B091DE032FBF08952FB7D3
:104A6000F8946091DB037091DC038091DD039091F9
:104A7000DE032FBF08959C014FB7F8948091DB03AC
:104A80009091DC03A091DD03B091DE034FBF821B48
:104A9000930B089578941F921FB61F9211248F9341
:104AA0009F93AF93BF938091DB039091DC03A09120
:104AB000DD03B091DE030196A11DB11D8093DB03E0
:104AC0009093DC03A093DD03B093DE03BF91AF911D
:104AD0009F918F911F901FBE1F90189587E797E7B2
:104AE000909301088093000888E19AE00FB6F8944B
:104AF000A895809360000FBE90936000FFCF88E17F
:104B00009AE00FB6F894A895809360000FBE90933A
:104B10006000FFCF8091C40308959B01BA0190917A
:104B2000E3039430E9F48F708093E9009FEF809164
:104B3000E800915085FD06C085ED8A95F1F70000EB
:104B40009111F5CF8091E80085FF0AC050E040E068
:104B5000C9010E946A288091E8008E778093E8005E
:104B6000089543E050E0BC0182E00E948D25089545
:104B700046E050E0BC0182E00E948D25089540E2AD
:104B800050E0BC0182E00E948D250895CF93DF9311
:104B9000EC0148E050E0BC0181E00E948D2588E0F6
:104BA000FE01ACEBB3E001900D928A95E1F7DF9145
:104BB000CF910895089587E19AE09F938F930E9483
:104BC000A3068091E2030F900F90811109C00E940B
:104BD000FA290E94572A8091E20084608093E200C3
:104BE000089583E19AE09F938F930E94A306109209
:104BF000E2030F900F9008958FE09AE09F938F93B8
:104C00000E94A3060E9494240F900F9008958BE0B9
:104C10009AE09F938F930E94A3066091DF0381E047
:104C2000611101C080E00E948B240F900F900895C5
:104C300087E09AE09F938F930E94A3069091E303ED
:104C400081E0943009F080E06091DF030E949124BC
:104C50000F900F9008952091BA032F5F822F62E387
:104C60000E94F02C992319F02093BA030895109212
:104C7000BA038091BB038823F1F08091E303843071
:104C8000C1F49091E9009F702091EC00822F817017
:104C900020FD80E8892B93E09093E9009091EB0050
:104CA00090FF04C09091EE0097FD08C08F70809334
:104CB000E9001092BB0308951092F1009091E80072
:104CC00095FDFACF9091E80090FFF0CF9091E80029
:104CD0009E779093E800EACF42E061EC81E00E9489
:104CE000762942E261EC82E00E94762942E261ECA0
:104CF00083E00E9476299091E30381E0943009F0EB
:104D000080E06091DF030E94812408958091E50393
:104D1000833009F461C030F48130D1F1823009F47C
:104D20009EC008958A3009F48AC08B3009F46FC0A0
:104D3000893009F050C08091E403813209F04BC002
:104D40008091E8039091E903029708F044C08091B4
:104D5000E800877F8093E8008091E80082FF37C0F9
:104D60009091F3008091F200029731F48091F1006C
:104D7000813011F0863021F48091F1008093C403DA
:104D80008091E8008B778093E8000E94AA2923C0D5
:104D90008091E403813AF9F48091E800877F809361
:104DA000E8008091E8039091E903892B61F468E0C1
:104DB0008CEB93E070E00E94B9288091E8008B773B
:104DC0008093E800089560E090E080E0F3CF809168
:104DD000E3038111C1CF08958091E403813AD9F7AB
:104DE0008091E8039091E903892BA9F78091E8006D
:104DF000877F8093E8008091E80080FFFCCF80915E
:104E000016018093F1008091E8008E77BCCF8091ED
:104E1000E403813201F78091E8039091E903892B43
:104E2000D1F68091E800877F8093E8000E94AA294C
:104E30008091E603809316010E947F0C0895809173
:104E4000E403813241F68091E800877F8093E80097
:104E50000E94AA298091E7038093C5030895809159
:104E6000E403813A09F0B7CF8091E800877F80930F
:104E7000E8008091E80080FFFCCF8091C503C1CF9E
:104E80009FB7F8941092BB039FBF9091E3039430B7
:104E900009F048C02091E9002F703091EC00932F69
:104EA000917030FD90E8922B23E02093E90020914F
:104EB000EB0020FF34C02091EE0027FF30C020918E
:104EC000B903222321F02091E80025FF28C0109289
:104ED000B90326E03091E80035FF14C08093F1005B
:104EE0008091E80085FD27C08091E80080FFFCCF1D
:104EF0008091E8008E778093E8009F709093E9009E
:104F000080E008953091E303343049F43091EB00B0
:104F100035FD05C0215041F481E08093B9039F70B5
:104F20009093E9008FEF0895EFE9FFE03197F1F7F3
:104F300000C00000CFCF8FB7F89421E02093BB03CF
:104F40008FBFDBCF84B7877F84BF0FB6F894A89557
:104F500080916000886180936000109260000FBEB5
:104F600080E890E00FB6F894809361009093610020
:104F70000FBE0E949A2408950E94FA290E94572A7F
:104F8000E2EEF0E080818460808378940E94D52CEA
:104F900008958CE091E00E942E2208958091E30311
:104FA000853091F48091960380FF08C081EF99E0ED
:104FB0009F938F930E94A3060F900F908091E3031D
:104FC000853019F00E94152508950E94EA248091E9
:104FD000E103882399F30E94A724882379F30E9490
:104FE00054280E947F0CEACF08959A014091EA0369
:104FF0005091EB030E94FD270895492F5527433018
:10500000510521F168F44130510509F443C04230A3
:10501000510509F444C090E080E050E040E026C033
:105020004132510551F142325105A9F76330710502
:1050300090F7FB01EE0FFF1FE254FD4F40815181BD
:1050400065547D4FFB01808190E010C0992781302D
:10505000910581F0009729F00297E9F6EBE1FAE07B
:1050600002C0E5E4FAE0849190E0AF01F9015183D8
:1050700040830895EBE2FAE0F6CF6330710558F60D
:10508000660F771FFB01EC53FD4F4081518189E092
:1050900090E0ECCF82E190E04DE95AE0E7CF84E583
:1050A00090E049E45AE0E2CF80E189BD82E189BD28
:1050B00009B400FEFDCF8091D8008F7D8093D80089
:1050C0008091E00082608093E0008091E00081FDAB
:1050D000FCCF0895AF92BF92CF92DF92FF920F93D1
:1050E0001F93CF93DF936C01EB018A010E94C929C2
:1050F000F82E811123C00115110539F0F8018081C6
:105100009181C81BD90BC80ED91EB12CA12C209798
:10511000A9F08091E80085FD22C08091E8008E779B
:105120008093E80001151105A1F0F80180819181BB
:10513000A80EB91EB182A08285E0F82E8F2DDF91D6
:10514000CF911F910F91FF90DF90CF90BF90AF90C4
:1051500008950E94C9298823D1F2F82EEFCFF601D5
:1051600081916F018093F1002197FFEFAF1ABF0A81
:10517000CECFFC018091EA039091EB03861797074D
:10518000A0F06115710529F49091E8009E77909345
:10519000E80090E06115710551F4911108C080910B
:1051A000E80082FF34C080E00895BC01F2CF809116
:1051B000E3038823C1F18530C1F18091E80083FDCC
:1051C00030C08091E80082FDEACF8091E80080FF46
:1051D000E1CF8091F3002091F200382F6115710525
:1051E00019F02830310558F091E02830310509F0E8
:1051F00090E02091E8002E772093E800CBCF8191BA
:105200008093F100615071092F5F3F4FE7CF80918C
:10521000E303882341F0853041F08091E80083FF6B
:10522000BECF81E0089582E0089583E00895FC01F7
:105230008091EA039091EB0386179707A0F0611520
:10524000710529F48091E8008E778093E80090E062
:105250006115710551F4911108C08091E80082FF39
:1052600035C080E00895BC01F2CF8091E30388232C
:10527000C9F18530C9F18091E80083FD31C080918A
:10528000E80082FDEACF8091E80080FFE1CF8091C5
:10529000F3002091F200382F6115710519F02830C4
:1052A000310558F091E02830310509F090E0809107
:1052B000E8008E778093E800CBCF84918093F10053
:1052C0003196615071092F5F3F4FE6CF8091E30324
:1052D000882341F0853041F08091E80083FFBDCF05
:1052E00081E0089582E0089583E00895982F973033
:1052F00028F08F708093E90081E008959093E90091
:10530000242F762F50E0981731F07091EC00209107
:10531000ED005091F00021FD02C09F5FE8CF309179
:10532000EB003E7F3093EB003091ED003D7F3093FA
:10533000ED003091EB0031603093EB007093EC00A6
:105340002093ED005093F0002091EE0027FDE5CF73
:1053500080E008958091E40387FF13C08091E80006
:1053600082FF06C08091E8008B778093E80004C03C
:105370008091E3038111F2CF08958091E3038823A4
:10538000D9F38091E80080FFF8CF8091E8008E7714
:10539000ECCF2091E4003091E50095E6A901209141
:1053A000EC00822F817020FF06C08091E80080FF12
:1053B00006C080E008952091E80022FD1AC0809187
:1053C000E303882389F0853089F08091EB0085FD27
:1053D0000FC02091E4003091E50042175307F9F225
:1053E0009150E1F684E0089582E0089583E0089505
:1053F00081E008950E94692A0E94712AE0EEF0E09F
:10540000808181608083E8EDF0E080818F77808308
:1054100019BCA7EDB0E08C918E7F8C9380818F7E3C
:1054200080831092E20308950F931F93CF93DF932D
:105430000E94692A0E94712AC8EDD0E088818F7786
:10544000888388818068888388818F7D888319BC60
:105450001092E3031092DF031092E1031092E00335
:1054600000EE10E0F80180818B7F8083888181606D
:10547000888342E060E080E00E947629E1EEF0E07F
:1054800080818E7F8083E2EEF0E080818160808386
:10549000808188608083F80180818E7F808388810D
:1054A00080618883DF91CF911F910F910895E8ED7E
:1054B000F0E080818F7E8083E7EDF0E08081816085
:1054C000808384E082BF81E08093E2030E94142AFB
:1054D0000895E8EDF0E080818E7F80831092E200F5
:1054E00008951092DA001092E10008951F920F9231
:1054F0000FB60F9211242F933F934F935F936F93A7
:105500007F938F939F93AF93BF93EF93FF9380917C
:10551000E10082FF0BC08091E20082FF07C0809112
:10552000E1008B7F8093E1000E942B268091DA00BE
:1055300080FF19C08091D80080FF15C08091DA00EB
:105540008E7F8093DA008091D90080FF96C080E141
:1055500089BD82E189BD09B400FEFDCF81E0809361
:10556000E3030E94DB258091E10080FF19C0809158
:10557000E20080FF15C08091E2008E7F8093E20000
:105580008091E20080618093E2008091D800806287
:105590008093D80019BC85E08093E3030E9407261E
:1055A0008091E10084FF2BC08091E20084FF27C03E
:1055B00080E189BD82E189BD89B5982F917080FF16
:1055C000FBCF8091D8008F7D8093D8008091E1003F
:1055D0008F7E8093E1008091E2008F7E8093E200D5
:1055E0008091E20081608093E2008091DF03882354
:1055F00009F449C084E08093E3030E941826809157
:10560000E10083FF29C08091E20083FF25C08091E3
:10561000E100877F8093E10082E08093E3031092B2
:10562000DF038091E1008E7F8093E1008091E200B2
:105630008E7F8093E2008091E20080618093E2009F
:1056400042E060E080E00E9476298091F00088606E
:105650008093F0000E94FC25FF91EF91BF91AF91E4
:105660009F918F917F916F915F914F913F912F917A
:105670000F900FBE0F901F90189519BC1092E30366
:105680000E94F12570CF8091E30087FD93E0909315
:10569000E303B3CF1F920F920FB60F9211242F93F3
:1056A0003F934F935F936F937F938F939F93AF93AA
:1056B000BF93CF93DF93EF93FF93D091E900DF7017
:1056C0008091EC00C82FC17080FDC0E81092E90005
:1056D0008091F000877F8093F00078940E948E2B59
:1056E0001092E9008091F00088608093F000CD2B4B
:1056F000CF70C093E900FF91EF91DF91CF91BF91FF
:10570000AF919F918F917F916F915F914F913F9159
:105710002F910F900FBE0F901F901895AAE2B0E046
:10572000E4E9FBE20C94252D84EE93E02091F10056
:10573000FC012193CF01F3E08C3E9F07B9F70E9453
:1057400086268091E80083FF1EC18091E40390913A
:10575000E5039A3008F017C1E92FF0E0E95BF14D5D
:105760000C94102D803899F0823809F00CC180918A
:10577000E8038F70873008F006C18093E9008091BC
:10578000EB0085FB882780F91092E90006C0809124
:10579000E0039091E103911182609091E800977F7E
:1057A0009093E8008093F1001092F1008091E8005E
:1057B0008E77E5C0882309F4D3C0823009F0E3C0B6
:1057C0008091E6038111D6C08091E8038F702FEF9E
:1057D000280F263008F0D7C08093E9002091EB0015
:1057E00020FFC8C0933031F48091EB008062809339
:1057F000EB00C0C09091EB0090619093EB0021E032
:1058000030E001C0220F8A95EAF72093EA00109257
:10581000EA008091EB008860EACF8111B4C010915A
:10582000E6031F778091E3008078812B8093E3006B
:105830008091E800877F8093E8000E94AA298091E8
:10584000E80080FFFCCF8091E30080688093E30054
:1058500082E0111183E08093E30395C08058823089
:1058600008F091C08091E6039091E7038C3D23E01E
:105870009207A1F583E08A838AE289834FB7F8947F
:10588000DE01139620E03EE051E2E32FF0E050937A
:105890005700E49120FF03C0E295EF703F5FEF7087
:1058A0008E2F90E0EA30C0F0C7968D939D932F5FC6
:1058B000243159F74FBF8091E800877F8093E8003B
:1058C0006AE270E0CE0101960E94B9288091E8005A
:1058D0008B778093E80057C0C096E7CF6091E803CC
:1058E0007091E903AE014F5F5F4F0E94F527BC0145
:1058F000892B09F448C09091E800977F9093E800C5
:1059000089819A810E941729E1CF8038E1F5809141
:10591000E800877F8093E8008091DF038093F100A7
:1059200045CF811130C09091E603923060F58091AF
:10593000E800877F8093E8009093DF030E94AA2904
:105940008091DF03882311F084E005C08091E3009B
:1059500087FDFACF81E08093E3030E946C2613C099
:105960008091E603813079F481E0933009F080E0A2
:105970008093E1031092E9008091E800877F809393
:10598000E8000E94AA298091E80083FF0AC0809164
:10599000E800877F8093E8008091EB00806280932D
:1059A000EB00AA96E3E00C94412DCF938091E303A2
:1059B0008823A1F0C091E900CF709091EC00892F6D
:1059C000817090FD80E8C82B1092E9008091E8007A
:1059D00083FD0E948E2BCF70C093E900CF91089574
:1059E000991B79E004C0991F961708F0961B881F31
:1059F0007A95C9F78095089597FB072E16F40094C1
:105A000007D077FD09D00E944D2D07FC05D03EF44C
:105A1000909581959F4F0895709561957F4F08955A
:105A2000EE0FFF1F0590F491E02D09942F923F9205
:105A30004F925F926F927F928F929F92AF92BF929E
:105A4000CF92DF92EF92FF920F931F93CF93DF934A
:105A5000CDB7DEB7CA1BDB0B0FB6F894DEBF0FBEA7
:105A6000CDBF09942A88398848885F846E847D84F4
:105A70008C849B84AA84B984C884DF80EE80FD80F6
:105A80000C811B81AA81B981CE0FD11D0FB6F8946C
:105A9000DEBF0FBECDBFED010895AA1BBB1B51E1B8
:105AA00007C0AA1FBB1FA617B70710F0A61BB70B8E
:105AB000881F991F5A95A9F780959095BC01CD0133
:105AC0000895FB01DC0104C08D910190801921F43F
:105AD00041505040C8F7881B990B0895FB01DC0129
